S012000073656E736F725F6932632E737265631B
S113000045C0000060C000005EC000005CC000008D
S11300105AC0000058C0000056C0000054C0000080
S113002052C0000050C000004EC000004CC0000090
S11300304AC0000048C0000046C0000044C00000A0
S113004042C0000040C000003EC000003CC00000B0
S11300503AC0000038C0000036C0000034C00000C0
S113006032C0000030C0000037C000002CC00000C7
S11300702AC0000028C0000026C0000024C00000E0
S113008022C0000020C000001EC0000011241FBEBA
S1130090CFEFD0E4DEBFCDBF11E0A0E0B1E0EEE7EA
S11300A0F1E000E00BBF02C007900D92A830B10749
S11300B0D9F721E0A8E0B1E001C01D92A930B20750
S11300C0E1F759D05AC09CCF82E28093BA0085E40C
S11300D08093BC00789408951F920F920FB60F92EC
S11300E011240BB60F928F93EF93FF938091B90075
S11300F0887F883A91F410920801E091080181E028
S11301008E0F80930801F0E0E050FF4F80818093D0
S1130110BB0085EC8093BC0024C0883BB9F480917B
S11301200801883068F4E091080181E08E0F809323
S11301300801F0E0E050FF4F80818093BB0002C0D3
S11301401092BB0085EC8093BC000BC0803C11F086
S1130150883C21F485EC8093BC0003C085EC80933B
S1130160BC00FF91EF918F910F900BBE0F900FBECB
S11101700F901F901895A8DFFFCFF894FFCFD3
S10B017E05F1FF14002301FF49
S9030000FC
