S012000073656E736F725F6932632E737265631B
S113000045C0000053C0000051C000004FC00000B4
S11300104DC000004BC0000049C0000047C00000B4
S113002045C0000043C0000041C000003FC00000C4
S11300303DC000003BC0000039C0000037C00000D4
S113004035C0000033C0000031C000002FC00000E4
S11300502DC000002BC0000029C0000027C00000F4
S113006025C0000023C0000034C000001FC00000F1
S11300701DC000001BC0000019C0000017C0000014
S113008015C0000013C0000011C0000011241FBEE1
S1130090CFEFD0E4DEBFCDBF21E0A0E0B1E001C0EE
S11300A01D92A930B207E1F753D0C4C0A9CF90E0A4
S11300B0FC01EF5FFE4F6083FC01EE5FFE4F708337
S11300C0089582E28093BA0085E48093BC0078941A
S11300D008951F920F920FB60F9211240BB60F9230
S11300E08F93EF93FF938091B900887F883A79F4D6
S11300F010920001E091000181E08E0F80930001D5
S1130100F0E0EF5FFE4F80818093BB0014C0883B1A
S113011091F480910001883058F4E091000181E06D
S11301208E0F80930001F0E0EF5FFE4F808101C0ED
S11301308FEF8093BB0085EC8093BC00FF91EF911F
S11301408F910F900BBE0F900FBE0F901F901895BC
S1130150B8DFBB24B39400E010E0C0E0D0E0AE010F
S11301604F5F5F4F8B2D880F990B080F191F680184
S113017025E0C21AD108C8014496899708F0B194C1
S11301809A0136952795ABE7B4E145D096958795C6
S113019062E3689F9001699F300D1124CA01821B9C
S11301A0930B059710F083E001C08BE0C559D1098A
S11301B0659730F484600F2EFAE0AF2EF02D04C062
S11301C00F2EF2E3AF2EF02D493C510510F4EA0155
S11301D002C0C0E0D0E0F8940F2EF1E0EF2EF1E081
S11301E0FF2EF02DF7018083B80181E060DFB601B6
S11301F083E05DDFF701A58260E070E086E057DF11
S11302007894FFEF20E782E0F15020408040E1F74E
S113021000C00000A4CFA29FB001B39FC001A39F60
S1130220700D811D1124911DB29F700D811D11242B
S10B0230911D0895F894FFCF1D
S9030000FC
