:1000000045C0000053C0000051C000004FC00000B8
:100010004DC000004BC0000049C0000047C00000B8
:1000200045C0000043C0000041C000003FC00000C8
:100030003DC000003BC0000039C0000037C00000D8
:1000400035C0000033C0000031C000002FC00000E8
:100050002DC000002BC0000029C0000027C00000F8
:1000600025C0000023C000002AC000001FC00000FF
:100070001DC000001BC0000019C0000017C0000018
:1000800015C0000013C0000011C0000011241FBEE5
:10009000CFEFD0E4DEBFCDBF21E0A0E0B1E001C0F2
:1000A0001D92A930B207E1F73BD03CC0A9CF84E252
:1000B0008093BA0085E48093BC00789408951F92E1
:1000C0000F920FB60F9211240BB60F928F93EF93EE
:1000D000FF938091B900887F803619F41092000157
:1000E00012C0803881F480910001883060F4E09182
:1000F000000181E08E0F80930001F0E08091BB0051
:10010000EF5FFE4F808385EC8093BC00FF91EF9101
:100110008F910F900BBE0F900FBE0F901F901895F0
:08012000C6DFFFCFF894FFCF0A
:00000001FF
