:1000000045C0000053C0000051C000004FC00000B8
:100010004DC000004BC0000049C0000047C00000B8
:1000200045C0000043C0000041C000003FC00000C8
:100030003DC000003BC0000039C0000037C00000D8
:1000400035C0000033C0000031C000002FC00000E8
:100050002DC000002BC0000029C0000027C00000F8
:1000600025C0000023C0000021C000001FC0000008
:100070001DC000001BC0000019C0000017C0000018
:1000800015C0000013C0000011C0000011241FBEE5
:10009000CFEFD0E4DEBFCDBF21E0A0E0B1E001C0F2
:1000A0001D92A930B207E1F732D034C0A9CF84E263
:1000B0008093BA0084E48093BC0008958091BC00D2
:1000C000882324F58091B900887F803631F410921E
:1000D000000184EC8093BC0008958038A1F48091E5
:1000E0000001883060F4E091000181E08E0F809380
:1000F0000001F0E08091BB00EF5FFE4F808384EC55
:100100008093BC00089584EC8093BC000895CFDFF9
:08011000D5DFFECFF894FFCF0C
:00000001FF
