:100000005CC0000077C0000075C0000073C0000035
:1000100071C000006FC000006DC000006BC0000028
:1000200069C0000067C0000065C0000063C0000038
:1000300061C000005FC000005DC000005BC0000048
:10004000BFC2000057C0000055C0000053C00000F0
:1000500051C000004FC000004DC000004BC0000068
:10006000DFC2000047C0000068C3000043C00000BA
:1000700041C000003FC000003DC000003BC0000088
:1000800039C0000037C0000035C00000084AD73B27
:100090003BCE016E84BCBFFDC12F3D6C74319ABD57
:1000A00056833DDA3D00C77F11BED9E4BB4C3E917B
:1000B0006BAAAABE000000803F0011241FBECFEF34
:1000C000D0E4DEBFCDBF11E0A0E0B1E0EAE8FEE0A1
:1000D00000E00BBF02C007900D92A832B107D9F71C
:1000E00022E0A8E2B1E001C01D92A630B207E1F71C
:1000F00064D3C9C685CF9BB1907F8F70892B8BB994
:10010000089580E480937C0087E080937E008FE8F0
:1001100080937A000895ECE7F0E09081907F8770FB
:10012000892B8083EAE7F0E08081806480830895F2
:10013000CF92DF92EF92FF92CF93DB01C1E0C12C0F
:10014000D12C760120E030E024C0EC2FF0E0EE0F5F
:10015000FF1FE80FF91F40815181A417B507C0F4B4
:10016000EC2FF0E03697AF01440F551FEE0FFF1F45
:10017000EE0FFF1FEE0FFF1F4E0F5F1F2F5F3F4F52
:10018000052E000C660B770BC40ED51EE61EF71E5F
:10019000CF5FCC30D0F22115310549F0032E000C91
:1001A000440B550BC701B60133D6C90102C08FEF0E
:1001B0009FE7CF91FF90EF90DF90CF900895EF925F
:1001C000FF921F93CF93DF93BC01613E81E07807DC
:1001D000C8F591E033C0492F50E0FA01EE0FFF1F40
:1001E000EE0FFF1FE050FF4FC081D1816C177D07DC
:1001F00020F1FA013197EE0FFF1FEE0FFF1FE050C5
:10020000FF4FE080F1801281440F551F440F551FAE
:10021000FA01E050FF4FA281B381BB27A11BB109B6
:100220009701261B370B10D697012C1B3D0B40E086
:1002300050E0CCD5822F810F06C09F5F9A3058F2D4
:1002400086E901C084E1DF91CF911F91FF90EF908B
:100250000895DC0191E040E00DC0E92FF0E0EE0FE1
:10026000FF1FEA0FFB1F208131816217730708F41B
:100270004F5F9F5F9C3088F340932B01493028F4F7
:100280004550443020F080E003C082E001C081E0AE
:10029000882361F0823021F090912901923011F091
:1002A000809329018EE1809328010AC08091280162
:1002B000882321F081508093280102C010922901E7
:1002C0008091290180932C01089584B1806B84B9B9
:1002D00085B1806185B981E58CBD089595B19F7E1A
:1002E00095B98EBD0DB407FEFDCF1EBC0DB407FE43
:1002F000FDCF8EB590E0982F88271EBC0DB407FE69
:10030000FDCF3EB525B1206125B9832B08956F92AD
:100310007F928F929F92AF92BF92CF92DF92EF9295
:10032000FF921F93CF93DF9310E095C0C12FD0E0D1
:10033000FE01EE0FFF1FDF01A251BE4F8D919C9178
:10034000A0E0B0E0AC01BD01440F551F661F771F50
:10035000480F591F6A1F7B1F6A017B01CC0CDD1CF3
:10036000EE1CFF1CCC0CDD1CEE1CFF1C8C0D9D1D1F
:10037000AE1DBF1D4C015D01880C991CAA1CBB1C45
:100380003E01660C771C660C771CC3018C589E4F8F
:100390007C01DC012D913D914D915C91A6EEB0E088
:1003A00059D5BB27A92F982F872F880D991DAA1DD6
:1003B000BB1DE70188839983AA83BB83492F5A2FEA
:1003C0006B2F7727DF01A454BE4F4D935C93DF0161
:1003D000AA52BE4F8D919C91A0E0B0E0AC01BD014E
:1003E000440F551F661F771F480F591F6A1F7B1F39
:1003F0006A017B01CC0CDD1CEE1CFF1CCC0CDD1C4F
:10040000EE1CFF1C8C0D9D1DAE1DBF1D6C017D01E2
:10041000CC0CDD1CEE1CFF1CE301CC5BDE4F288105
:1004200039814A815B81A6EEB0E014D5BB27A92FA4
:10043000982F872F8C0D9D1DAE1DBF1D888399831E
:10044000AA83BB83892F9A2FAB2FBB27EC55FE4F76
:10045000918380831F5F1C3008F468CFDF91CF91B8
:100460001F91FF90EF90DF90CF90BF90AF909F9043
:100470008F907F906F90089590E0FC01E85CFE4FB4
:100480006083FC01E75CFE4F70830895CF93C0E06A
:1004900084E924DFCF5FEFE1F3E03197F1F700C0AB
:1004A0000000992314F4C23398F38FED91E0019783
:1004B000F1F700C00000CF91089584E90FDF8FEDC0
:1004C00091E00197F1F700C0000080E807DF992371
:1004D000ECF0969587959770885F93409C01220F6A
:1004E000331F880F991F880F991F880F991F280F96
:1004F000391FC90199230CF4CF96082E892F000CBF
:10050000881F990B000C881F991F089580E090E0C8
:1005100008958F929F92AF92BF92CF92DF92EF9207
:10052000FF920F931F93CF93DF938F3FEFE79E07C9
:1005300091F16F3FEFE77E0789F169017A018B0145
:10054000EC0120E030E0A901C701B6015ED2181627
:1005500044F5BE01DD0F880B990BF6D24B015C010F
:10056000B801110F880B990BEFD29B01AC01C501AB
:10057000B401BED1A70196014CD21FD221EE3EE2BA
:1005800045E652E4BDD320E030E040E251E4B8D388
:10059000A8D2CB0108C080E090E005C080E090E0E8
:1005A00002C080E090E0DF91CF911F910F91FF900A
:1005B000EF90DF90CF90BF90AF909F908F90089575
:1005C0001F920F920FB60F9211240BB60F922F931A
:1005D0003F934F935F936F937F938F939F93AF93CB
:1005E000BF93EF93FF931092430110924201109238
:1005F000410180E080DD80E08EDDFF91EF91BF91D1
:10060000AF919F918F917F916F915F914F913F91AA
:100610002F910F900BBE0F900FBE0F901F9018954B
:100620001F920F920FB60F9211240BB60F922F93B9
:100630003F934F935F936F937F938F939F93AF936A
:10064000BF93EF93FF9320917800309179008091D0
:10065000410181112EC080914201811106C081E0CB
:100660008093420180E057DD55C0E0914301F0E006
:10067000EE0FFF1FE251FE4F318320838091430133
:100680008F5F809343018C3040F48091430133DDD0
:100690001092420180E03FDD3DC010924301109274
:1006A000420181E08093410180E025DD81E033DD7E
:1006B00031C080914101813031F580914201811139
:1006C00005C081E08093420126DD24C0E091430112
:1006D000F0E0EE0FFF1FEA52FE4F3183208380913E
:1006E00043018F5F809343018C3040F4809143013C
:1006F00002DD1092420181E00EDD0CC082E08093A9
:10070000410109DD07C03093D5012093D40181E078
:1007100080934001FF91EF91BF91AF919F918F9195
:100720007F916F915F914F913F912F910F900BBEF1
:100730000F900FBE0F901F9018951F920F920FB63B
:100740000F9211240BB60F928F93EF93FF9380912A
:10075000B900887F883A19F0883B81F021C0109257
:100760003701E091370181E08E0F80933701F0E08F
:10077000E85CFE4F80818093BB0012C080913701FE
:10078000883058F4E091370181E08E0F8093370173
:10079000F0E0E85CFE4F808101C08FEF8093BB00EA
:1007A00085EC8093BC00FF91EF918F910F900BBE71
:1007B0000F900FBE0F901F9018958AB18F638AB962
:1007C0008BB180638BB99DDC80DD60DE80E280933D
:1007D000BA0085E48093BC0082E084BD85E085BDDD
:1007E0008BE987BDEEE6F0E08081826080837894BB
:1007F000809140018823E1F31092400188DD66E496
:1008000070E084EA91E025DDD82E66E470E08CEBA0
:1008100091E08EDC8C0166E470E084EA91E088DC93
:10082000EC018091D4019091D501C9DCB82E90E003
:1008300090932E0180932D0140DE7C0120E030E07A
:100840004CE852E4BE01C80164DE9093300180930D
:100850002F010F3F8FE7180711F420E001C021E0BE
:10086000CF3F9FE7D90709F022609D2D9370892F14
:1008700090E0880F991F880F991F822BEAE5EB15EE
:1008800008F0806180932A01F8940F2EF8E3CF2EB0
:10089000F1E0DF2EF02DF6018083B80181E0ECDD80
:1008A000BE0183E0E9DDF601B582B70186E0E4DD53
:1008B00081E0F601808363E070E082E0DDDD65E0E9
:1008C00070E084E0D9DD86E0F601858368E070E0C1
:1008D00087E0D2DD78941093360100933501D093F0
:1008E0003401C0933301F0923201E092310180CFA4
:1008F0005058BB27AA270ED0C2C1B3D130F0B8D10F
:1009000020F031F49F3F11F41EF483C10EF4E09502
:10091000E7FB79C1E92FC4D180F3BA1762077307E7
:100920008407950718F071F49EF5DCC10EF4E0958C
:100930000B2EBA2FA02D0B01B90190010C01CA0199
:10094000A0011124FF27591B99F0593F50F4503E44
:1009500068F11A16F040A22F232F342F4427585F36
:10096000F3CF469537952795A795F0405395C9F74E
:100970007EF41F16BA0B620B730B840BBAF0915006
:10098000A1F0FF0FBB1F661F771F881FC2F70EC0A5
:10099000BA0F621F731F841F48F487957795679578
:1009A000B795F7959E3F08F0B3CF9395880F08F061
:1009B0009927EE0F979587950895DF93DD27B92F37
:1009C000BF7740E85FE31616170648075B0710F489
:1009D000D92F8FD19F938F937F936F93F4D1ECE8AE
:1009E000F0E01AD14CD12F913F914F915F9194D16A
:1009F000DD2349F09058A2EA2AED3FE049EC5FE39D
:100A0000D0785D2787DFDF913AC1D9D008F481E043
:100A100008950CD034C12CD140F023D130F021F412
:100A20005F3F19F0F0C051115EC1F3C039D198F3A6
:100A30009923C9F35523B1F3951B550BBB27AA275F
:100A400062177307840738F09F5F5F4F220F331FD1
:100A5000441FAA1FA9F333D00E2E3AF0E0E830D09D
:100A600091505040E695001CCAF729D0FE2F27D0A0
:100A7000660F771F881FBB1F261737074807AB076E
:100A8000B0E809F0BB0B802DBF01FF2793585F4FE3
:100A90002AF09E3F510568F0B6C025C15F3FECF3D8
:100AA000983EDCF3869577956795B795F7959F5FA8
:100AB000C9F7880F911D9695879597F90895E1E0FC
:100AC000660F771F881FBB1F621773078407BA075B
:100AD00020F0621B730B840BBA0BEE1F88F7E095B6
:100AE000089504D06894B111FEC00895E1D088F053
:100AF0009F5790F0B92F9927B751A0F0D1F0660F0A
:100B0000771F881F991F1AF0BA95C9F712C0B13024
:100B100081F0E8D0B1E00895E5C0672F782F8827ED
:100B2000B85F39F0B93FCCF3869577956795B39563
:100B3000D9F73EF490958095709561957F4F8F4FD2
:100B40009F4F0895E89409C097FB3EF490958095D7
:100B5000709561957F4F8F4F9F4F9923A9F0F92F83
:100B600096E9BB279395F695879577956795B79501
:100B7000F111F8CFFAF4BB0F11F460FF1BC06F5FE7
:100B80007F4F8F4F9F4F16C0882311F096E911C0F9
:100B9000772321F09EE8872F762F05C0662371F01A
:100BA00096E8862F70E060E02AF09A95660F771F2E
:100BB000881FDAF7880F9695879597F90895990F0A
:100BC0000008550FAA0BE0E8FEEF16161706E80717
:100BD000F907C0F012161306E407F50798F0621B38
:100BE000730B840B950B39F40A2661F0232B242B0D
:100BF000252B21F408950A2609F4A140A6958FEF2C
:100C0000811D811D089597F99F6780E870E060E07D
:100C100008959FEF80EC0895DF93CF931F930F9378
:100C2000FF92EF92DF927B018C01689405C0DA2E6F
:100C3000EF0172D0FE01E894A5912591359145917F
:100C40005591AEF3EF0166DEFE019701A801DA943B
:100C500079F7DF90EF90FF900F911F91CF91DF9187
:100C6000089500240A941616170618060906089512
:100C700000240A9412161306140605060895092E78
:100C80000394000C11F4882352F0BB0F40F4BF2BE7
:100C900011F460FF04C06F5F7F4F8F4F9F4F089527
:100CA00057FD9058440F551F59F05F3F71F047951D
:100CB000880F97FB991F61F09F3F79F08795089502
:100CC000121613061406551FF2CF4695F1DF08C021
:100CD000161617061806991FF1CF8695710561053E
:100CE00008940895E894BB2766277727CB0197F9E6
:100CF00008959B01AC0160E070E080E89FE389CE3D
:100D00000BD0BDCFAEDF28F0B3DF18F0952309F08C
:100D10007ACF7FCF1124E7CFC3DFA0F3959FD1F324
:100D2000950F50E0551F629FF001729FBB27F00D99
:100D3000B11D639FAA27F00DB11DAA1F649F6627EE
:100D4000B00DA11D661F829F2227B00DA11D621F3D
:100D5000739FB00DA11D621F839FA00D611D221FF7
:100D6000749F3327A00D611D231F849F600D211DDB
:100D7000822F762F6A2F11249F5750408AF0E1F07E
:100D800088234AF0EE0FFF1FBB1F661F771F881FC7
:100D900091505040A9F79E3F510570F034CFA3CF3A
:100DA0005F3FECF3983EDCF3869577956795B795B2
:100DB000F795E7959F5FC1F7FE2B880F911D9695DC
:100DC000879597F908959B01AC019ACFA1E21A2E5D
:100DD000AA1BBB1BFD010DC0AA1FBB1FEE1FFF1FDF
:100DE000A217B307E407F50720F0A21BB30BE40B2F
:100DF000F50B661F771F881F991F1A9469F7609576
:100E00007095809590959B01AC01BD01CF0108952F
:100E1000052E97FB16F400940FD057FD05D0D6DFB2
:100E200007FC02D046F408C05095409530952195B6
:100E30003F4F4F4F5F4F0895909580957095619506
:100E40007F4F8F4F9F4F08950FD0B7FF0895821B9C
:100E5000930B089509D0A59F900DB49F900DA49F6A
:100E6000800D911D11240895A29FB001B39FC00170
:100E7000A39F700D811D1124911DB29F700D811DC6
:0A0E80001124911D0895F894FFCF8E
:100E8A00E10114008A011E00370128000101320025
:100E9A00E1003C00C7004600B2005000AA005A0018
:080EAA00A000640099006E0035
:00000001FF
