:1000000045C0000053C0000051C000004FC00000B8
:100010004DC000004BC0000049C0000047C00000B8
:1000200045C0000043C0000041C000003FC00000C8
:100030003DC000003BC0000039C0000037C00000D8
:1000400035C0000033C0000031C000002FC00000E8
:100050002DC000002BC0000029C0000027C00000F8
:1000600025C0000023C0000034C000001FC00000F5
:100070001DC000001BC0000019C0000017C0000018
:1000800015C0000013C0000011C0000011241FBEE5
:10009000CFEFD0E4DEBFCDBF21E0A0E0B1E001C0F2
:1000A0001D92A930B207E1F753D0B4C0A9CF90E0B8
:1000B000FC01EF5FFE4F6083FC01EE5FFE4F70833B
:1000C000089582E28093BA0085E48093BC0078941E
:1000D00008951F920F920FB60F9211240BB60F9234
:1000E0008F93EF93FF938091B900887F883A79F4DA
:1000F00010920001E091000181E08E0F80930001D9
:10010000F0E0EF5FFE4F80818093BB0014C0883B1E
:1001100091F480910001883058F4E091000181E071
:100120008E0F80930001F0E0EF5FFE4F808101C0F1
:100130008FEF8093BB0085EC8093BC00FF91EF9123
:100140008F910F900BBE0F900FBE0F901F901895C0
:10015000B8DFDD24D39400E010E0C0E0D0E02196C9
:100160008D2D880F990B080F191F580125E0A21A31
:10017000B108C8014996C39708F0D1949E013695FD
:100180002795ABE7B4E137D09695879542E3489F32
:100190009001499F300D1124CE01821B930B0597CE
:1001A00010F083E001C08BE0C93E93E0D90710F066
:1001B000C0E0D0E0F8940F2EF1E0EF2EF1E0FF2E3A
:1001C000F02DF7018083B80181E071DFB50183E094
:1001D0006EDF82E3F701858360E070E086E067DF31
:1001E0007894FFEF20E782E0F15020408040E1F773
:1001F00000C00000B4CFA29FB001B39FC001A39F75
:10020000700D811D1124911DB29F700D811D11244F
:08021000911D0895F894FFCF41
:00000001FF
