S012000068616D74615F746573742E73726563E8
S113000045C0000053C0000051C000004FC00000B4
S11300104DC000004BC0000049C0000047C00000B4
S113002045C0000043C0000041C000003FC00000C4
S11300303DC000003BC0000039C0000037C00000D4
S113004035C0000033C0000031C000002FC00000E4
S11300502DC000002BC0000029C0000027C00000F4
S113006025C0000023C0000021C000001FC0000004
S11300701DC000001BC0000019C0000017C0000014
S113008015C0000013C0000011C0000011241FBEE1
S1130090CFEFD0E4DEBFCDBF21E0A0E0B1E001C0EE
S11300A01D92A930B207E1F739D03BC0A9CF84E251
S11300B08093BA0084E48093BC0008958091BC00CE
S11300C08823E4F78091B900887F803631F4109258
S11300D0000184EC8093BC0008958038A9F48091D9
S11300E00001883068F4E0910001F0E08091BB00E9
S11300F0EF5FFE4F8083809100018F5F809300014A
S113010084EC8093BC000895803A21F484EC8093BD
S1130110BC00089584EC8093BC000895C8DFCEDF52
S1090120FECFF894FFCFAE
S9030000FC
