S011000032737479726B6F6D6D2E737265635B
S113000045C0000053C0000051C000004FC00000B4
S11300104DC000004BC0000049C0000047C00000B4
S113002045C0000043C0000041C000003FC00000C4
S11300303DC000003BC0000039C0000037C00000D4
S113004035C0000033C0000031C000002FC00000E4
S11300502DC000002BC0000029C0000027C00000F4
S113006025C0000023C000002AC000001FC00000FB
S11300701DC000001BC0000019C0000017C0000014
S113008015C0000013C0000011C0000011241FBEE1
S1130090CFEFD0E4DEBFCDBF21E0A0E0B1E001C0EE
S11300A01D92A331B207E1F767D08EC0A9CF84E2D5
S11300B08093BA0085E48093BC00789408951F92DD
S11300C00F920FB60F9211240BB60F928F93EF93EA
S11300D0FF938091B900887F803619F41092020151
S11300E03EC0803889F4809102018830C0F5E091E7
S11300F0020181E08E0F80930201F0E08091BB0049
S1130100E55FFE4F80832BC0803A21F481E0809329
S1130110000125C0883A79F410920101E0910101AF
S113012081E08E0F80930101F0E0ED5FFE4F80814E
S11301308093BB0014C0883B91F480910101883006
S113014058F4E091010181E08E0F80930101F0E009
S1130150ED5FFE4F808101C08FEF8093BB0085EC83
S11301608093BC00FF91EF918F910F900BBE0F9085
S11301700FBE0F901F9018959ADF8091000188237D
S1130180E1F380910B018530E1F4809112018F3FFE
S1130190C1F40AC0FC01E55FFE4F2081FC01ED5F64
S11301A0FE4F2083019602C080E090E088309105E4
S11301B08CF3EBE0F1E0818182818381848185810C
S10F01C0868110920001D9CFF894FFCF83
S9030000FC
